S0110000584D4547415F4932432E7372656384
S11300000C94FE000C9412010C9412010C94120135
S11300100C9412010C9412010C9412010C94120110
S11300200C9412010C9412010C9412010C94120100
S11300300C9412010C9412010C9412010C941201F0
S11300400C9412010C9412010C9412010C941201E0
S11300500C9412010C9412010C9412010C941201D0
S11300600C9412010C9412010C9412010C941201C0
S11300700C9412010C9412010C9412010C941201B0
S11300800C9412010C9412010C9412010C941201A0
S11300900C9412010C9412010C9412010C94120190
S11300A00C9412010C9412010C9412010C94120180
S11300B00C9412010C9412010C94F8010C9412018A
S11300C00C9412010C9412010C9412010C94120160
S11300D00C9412010C9412010C9412010C94120150
S11300E00C9412010C9412010C9412010C94120140
S11300F00C9412010C9412010C9412010C94120130
S11301000C9412010C9412010C9412010C9412011F
S11301100C9412010C9412010C9412010C9412010F
S11301200C9412010C9412010C9412010C941201FF
S11301300C9412010C9412010C9412010C941201EF
S11301400C9412010C9412010C9412010C941201DF
S11301500C9412010C9412010C9412010C941201CF
S11301600C9412010C9412010C9412010C941201BF
S11301700C9412010C9412010C9412010C941201AF
S11301800C9412010C9412010C9412010C9412019F
S11301900C9412010C9412010C9412010C9412018F
S11301A00C9412010C9412010C9412010C9412017F
S11301B00C9412010C9412010C9412010C9412016F
S11301C00C9412010C9412010C9412010C9412015F
S11301D00C9412010C9412010C9412010C9412014F
S11301E00C9412010C9412010C9412010C9412013F
S11301F00C9412010C9412010C94120111241FBED0
S1130200CFEFCDBFDFE5DEBF00E00CBF20E2A0E012
S1130210B0E201C01D92AC32B207E1F70E94E901DD
S11302200C9416030C9400000F93E0E0F0E280E8D5
S1130230808383E0818300E022E0AF0169E28DE006
S113024090E20E944802EDE0F0E287898111FDCF3F
S113025082E98093002001E021E040E050E269E27D
S11302608DE090E20E944802EDE0F0E2878981117E
S1130270FDCF80911820843421F08FEF80930820E3
S113028003C08DEA80930820E0E0F0E281E88083F7
S1130290118200E022E0AF0169E28DE090E20E9469
S11302A04802EDE0F0E287898111FDCFE0E0F0E261
S11302B08FE88083118200E022E0AF0169E28DE0E3
S11302C090E20E944802EDE0F0E287898111FDCFBF
S11302D084E98093002008E021E040E050E269E2F4
S11302E08DE090E20E944802EDE0F0E287898111FE
S11302F0FDCFEDE0F0E28485238590E0982F8827F8
S1130300820F911D80932620909327208685258532
S113031090E0982F8827820F911D80930B20909353
S11303200C208089278590E0982F8827820F911DC3
S113033080932820909329208289218990E0982F06
S11303408827820F911D8093092090930A200F9192
S113035008950F9308E020E040E050E269E28DE068
S113036090E20E944802EDE0F0E287898111FDCF1E
S1130370EDE0F0E28485238590E0982F8827820FB2
S1130380911D80932620909327208685258590E0D3
S1130390982F8827820F911D80930B2090930C2017
S11303A08089278590E0982F8827820F911D80935C
S11303B02820909329208289218990E0982F8827EA
S11303C0820F911D8093092090930A2087890F91B1
S11303D008950E94220278940E9414010E94A901A7
S11303E080932A2080912B208F5F80932B20F6CF3F
S11303F01F920F920FB60F9211240BB60F922F93E8
S11304003F934F935F936F937F938F939F93AF9398
S1130410BF93EF93FF938DE090E20E94FD02FF9162
S1130420EF91BF91AF919F918F917F916F915F9168
S11304304F913F912F910F900BBE0F900FBE0F90D5
S11304401F901895E0E8F6E083E0818388E3808BD1
S1130450818B2DEF40E460EA74E08DE090E20E942D
S11304603702E0EAF0E08281816082830895FC0132
S1130470608371834863DB0111964C93A081B18141
S113048015962C930190F081E02D81E084830895EA
S11304900F93CF93DF93FC01293098F5093098F539
S11304A08789811132C081E0878B108E660F628349
S11304B0222369F0A42FB52F40E050E08D91EF0185
S11304C0C40FD51F8B834F5F5F4F4217B8F3238B45
S11304D0048B158A168A8389882341F082818E7F52
S11304E00190F081E02D868381E012C08489882305
S11304F071F0828181600190F081E02D868381E03A
S113050007C080E005C080E003C080E001C081E056
S1130510DF91CF910F910895FC01A081B1811496D0
S11305209C91149792FF03C084E0808F02C083E003
S1130530808F986014969C93178A0895CF93DF93C5
S1130540FC0193892489A081B18114968C9114971C
S113055084FF07C083E013968C9385E0808F178A0D
S11305601CC08589891758F48589EF01C80FD11DEE
S11305708B8117968C9385898F5F858B0EC08689B6
S1130580821728F48281816016968C9306C083E0DA
S113059013968C9381E0808F178ADF91CF91089511
S11305A0FC018689883070F4A081B18117968C9102
S11305B09689DF01A90FB11D1B968C9386898F5FE5
S11305C0868B08C0A081B18183E013968C9382E06E
S11305D0808F178A94898689891730F40190F08175
S11305E0E02D82E083830895A081B18187E0139692
S11305F08C9381E0808F178A0895DC01ED91FC9142
S11306002481322F3C7019F00E948C02089526FF39
S113061003C00E949E02089522231CF40E94D0026B
S1130620089526E0FC01208F178A0895F894FFCFDF
S9030000FC
